:1000000010C017C016C015C014C013C012C011C054
:1000100010C00FC00EC00DC00CC00BC00AC009C07C
:1000200008C011241FBECFE5D2E0DEBFCDBF6FD028
:100030008AC0E6CFCF938230E9F018F4813051F0D6
:100040002FC0843039F1883059F581E090E448D0F0
:100050006FEF24C080E091E043D0C82F811101C030
:10006000C1E06C2F81E090E42DD06C2F660F80E012
:1000700091E01DC081E092E033D0C82F811101C012
:10008000C0E86C2F81E090E41DD06C2F669581E074
:1000900092E00DC081E090E423D061E0680F05C0DC
:1000A00081E090E41DD0682F609581E090E4CF91CD
:1000B00009C08FEF86B981BB84BB17B815BA80EC35
:1000C00082BB08952FEF2ABB399A8BBB95BB399819
:1000D0006BBB969885E38A95F1F70000969A089590
:1000E0002FEF2ABB399A8BBB95BB39981ABA85E397
:1000F0008A95F1F70000979895E39A95F1F700003B
:1001000089B3979A95E39A95F1F700000895D1DFA6
:1001100061E080E091E0D6DF60E881E092E0D2DF4C
:1001200060E080E090E2CEDF6FEF80E090E4CADF35
:1001300082E090E2D5DF7EDF8FE19EE40197F1F768
:0A01400000C00000F5CFF894FFCFD7
:00000001FF
