:1000000010C017C016C015C014C013C012C011C054
:1000100010C00FC00EC00DC00CC00BC00AC009C07C
:1000200008C011241FBECFE5D2E0DEBFCDBF5FD038
:1000300072C0E6CF8230B1F018F4813051F021C0A7
:100040008430C9F08830E9F481E090E439D06FEF72
:1000500016C081E090E434D0813011F462E016C023
:1000600061E014C081E090E42BD0803811F460E4AA
:100070000DC060E80BC081E090E422D061E0680F21
:1000800005C081E090E41CD0682F609581E090E489
:1000900009C08FEF86B981BB84BB17B815BA80EC55
:1000A00082BB08952FEF2ABB399A8BBB95BB399839
:1000B0006BBB969885E38A95F1F70000969A0895B0
:1000C0002FEF2ABB399A8BBB95BB39981ABA85E3B7
:1000D0008A95F1F70000979895E39A95F1F700005B
:1000E00089B3979A95E39A95F1F700000895D1DFC7
:1000F00060E080E090E2D6DF6FEF80E090E4D2DF56
:1001000082E090E2DDDF96DF8FE19EE40197F1F778
:0A01100000C00000F5CFF894FFCF07
:00000001FF
